:0200000039289D
:0E0006008312031321088A00200882000800DC
:0E0014008312031306148610061586110800C9
:0E0022008312031306108614061186150800BB
:0E0030008312031306148610061186110800B1
:0E003E008312031306108610061586110800A3
:0E004C00831203130610861006118611080099
:10005A0003208A110A128000840AA00A0319A10A3D
:08006A00F003031D2D2808001E
:1000720083160313860101308800831286018801EA
:10008200081C45280A205228881C49281120522879
:10009200081D4D2818205228881D51281F2052283B
:0600A2002620412853282E
:02400E004A2F37
:00000001FF
