:020000002B28AB
:0E0006008312031321088A00200882000800DC
:0E0014008312031306108614061186150800C9
:0E0022008312031306148610061586110800BB
:0E0030008312031306108610061186110800B5
:10003E0003208A110A128000840AA00A0319A10A59
:08004E00F003031D1F28080048
:1000560083160313061086100611861108148814D9
:100066008312061086100611861108108810081CC7
:100076003E280A204328881C42281120432818209D
:040086003A284428A8
:02400E004A2F37
:00000001FF
